:020000040800F2
:1000000030070020A5020008ED240008A51E000806
:10001000E9240008B90300088D4900080000000029
:10002000000000000000000000000000514800082F
:10003000BD03000800000000F12400085548000836
:10004000BF020008BF020008BF020008BF0200088C
:10005000BF020008BF020008BF020008BF0200087C
:10006000BF020008BF020008BF020008BF0200086C
:10007000BF020008BF020008BF020008BF0200085C
:10008000BF02000800000000AD030008BF02000826
:10009000BF020008BF020008BF020008BF0200083C
:1000A000BF020008BF020008BF020008BF0200082C
:1000B000BF020008BF020008BF020008BF0200081C
:1000C000BF020008BF020008BF020008BF0200080C
:1000D000BF020008BF020008BF020008BF020008FC
:1000E000BF020008BF020008BF020008BF020008EC
:1000F000BF020008BF020008BF02000800000000A5
:1001000000000000BF02000800000000BF0200085D
:10011000BF020008000000006D480008BF02000890
:10012000BF020008BF020008BF020008BF020008AB
:10013000BF0200080000000000000000BF0200082D
:10014000BF020008BF02000800000000000000001D
:10015000000000000000000000000000000000009F
:10016000000000000000000000000000BF020008C6
:10017000BF020008000000000000000000000000B6
:1001800000000000BF0200080000000000000000A6
:10019000000000000000000000000000000000005F
:1001A0000000000000000000BF020008BF020008BD
:1001B000BF020008BF020008BF02000800000000E4
:1001C00000000000BF020008000000000000000066
:1001D000BF020008BF02000800F002F800F052F869
:1001E00014A696E8000CB244B344DA4501D100F0FD
:1001F00049F8BAE80F000FA696E83000A5EB040511
:1002000004EB0607AAEB0704A7F101074FEA15154F
:100210004FEA3414A4F10104AC4201D300F032F8E7
:1002200013F0010F18BFFB1A43F0010300F001F8AF
:10023000DBE71847B4480000D4480000103A24BF58
:1002400078C878C1FAD8520724BF30C830C144BF3B
:1002500004680C6070470000704700000023002411
:1002600000250026103A28BF78C1FBD8520728BFC6
:1002700030C148BF0B6070471FB504F020FC1FBDA4
:1002800010B510BD00F058F81146FFF7F5FF04F067
:10029000CBFB00F076F803B4FFF7F2FF03BC00F0ED
:1002A0007DF800000948804709480047FEE7FEE75F
:1002B000FEE7FEE7FEE7FEE7FEE7FEE7FEE7FEE716
:1002C00004480549054A064B704700005948000894
:1002D000D901000830010020300700203003002041
:1002E000300300204FF0000200B5134694469646B6
:1002F000203922BFA0E80C50A0E80C50B1F1200139
:10030000BFF4F7AF090728BFA0E80C5048BF0CC0E6
:100310005DF804EB890028BF40F8042B08BF704744
:1003200048BF20F8022B11F0804F18BF00F8012BB6
:100330007047704770477047754600F02BF8AE461F
:1003400005006946534620F00700854618B020B5E1
:10035000FFF7B6FFBDE820404FF000064FF0000762
:100360004FF000084FF0000BAC46ACE8C009ACE819
:10037000C009ACE8C009ACE8C00921F007018D460E
:10038000704710B50446AFF300802046BDE810402A
:10039000FFF781BF00487047100000200149182076
:1003A000ABBEFEE7260002007047000040F274007A
:1003B000C2F2000000F0E2B9FEE700007047000062
:1003C000EFF3108072B600BFFEE700007047000038
:1003D0007047000070470000704700007047000041
:1003E000F0B581B00022009290F85820012A01D186
:1003F0000221BBE10123076880F85830BB685B0726
:1004000034D4D1E900351F26C5F3012407EB840459
:10041000226B05F01F05AE40C3F38463B243AB40CB
:100420001A432263BA68BB6802F0040203F00803AF
:10043000D21840F0BC800A6807F114030426C2F306
:100440004064D1F808E006EAD25C53F82440C2F3D5
:1004500004550722AA40BEF1004F24EA02040BD142
:1004600043F80C401A6842F000430DE0C16D41F0C2
:100470002001C165012176E10EFA05F2224343F81D
:100480000C201A6822F000437B61D1E90435FC6836
:10049000042B5FD13A6E3A6E0B68C2F3846293FA12
:1004A000A3F6C3F3846C6FF3DF43B6FA86F5002B33
:1004B0002C464FF6FF7E08BF6446A242C0F2070EEC
:1004C0000CD13A6E22F000423A660A6802EA0E0344
:1004D000C2F3846C92FAA2F2B2FA82F57A6E7A6E64
:1004E000002BC2F384622C4608BF6446A2420CD1A2
:1004F0007A6E22F000427A660A6802EA0E03C2F3BC
:10050000846C92FAA2F2B2FA82F5BA6EBA6E002B3D
:10051000C2F384622C4608BF6446A2420CD1BA6E74
:1005200022F00042BA660A6802EA0E03C2F3846C43
:1005300092FAA2F2B2FA82F5FA6EFA6E002BC2F3C8
:10054000846208BF6546AA4231D1FA6E22F00042A9
:10055000FA662CE0062202EA940205FA02FC0E6812
:1005600007F1600555F823404FF20002C0F2FF3258
:1005700006F0F846224046EA0C06324342F00042BA
:1005800045F823200A698B6955F8226026F08076A9
:10059000334345F822300A690B7F55F82260012B5E
:1005A00026F0007608BF06F1007645F82260BA68AA
:1005B0000D68D2074FD1CA68D7F8B0602B466FF3E9
:1005C000DF4326EA030C4FF6FF7602F01804C0F270
:1005D0000706E64000242E40C4F27F0446EA0C06DB
:1005E000A242C7F8B06036D18BB195FAA5F2B2FA43
:1005F00082F2013202F01E03092B02F01F030FD812
:1006000001229A4003EB430342EA035314E0012220
:1006100002EB956202F01E030A2B02F01F03EFD3D8
:10062000012200269A4003EB4303CFF6206606EB37
:1006300003531A4342F00073C3F3406607EB860688
:100640008A687569C3F3045307249C40A5439A4004
:100650002A4372610D680021C8F208010D4200F0C2
:10066000818040F2083CC5F2000CDCF8004000211B
:10067000CCF221318D4204F0E07E04D01021C9F289
:10068000C0018D4240D1B7F1A04F4FF0000108BF2B
:1006900014F4000267D1DCF8001042F6635221F036
:1006A000E07141EA0E0141F40001CCF8001040F283
:1006B0000401C2F200010968C0F23E528909A1FB9F
:1006C0000212910901EB41010C2202EB8101009120
:1006D0000099002946D0009901390091009900291C
:1006E00040D00099013900910099D9B3009901399E
:1006F00000910099B1B30099013900910099002946
:100700004FF00001E7D12EE00021CCF252718D4272
:1007100010D10021B1EB1E6F0CD1ACF502718F42EC
:1007200020D0DCF8001021F0E07141EA0E0141F028
:10073000807115E0ACF502718F424FF0000112D0CC
:100740000022CCF68432954208BF14F480020AD10C
:10075000DCF8001021F0E07141EA0E0141F4800163
:10076000CCF800100021002280F85820084601B083
:10077000F0BD000070470000704700002DE9F04711
:10078000056840F20018C5F200082E68D5F804A0EC
:10079000D8F808720446B0070FD51AF002000CD042
:1007A000E06DC00603D4E06D40F40060E0652046D3
:1007B000FFF70CFE256802202860700707F01F096C
:1007C00002D51AF0040004D1300749D51AF0080008
:1007D00046D0204650F85C2FD20603D4026842F47B
:1007E00000720260EA6812F4406F33D12A46454530
:1007F00008BF4FF0A0421346B9F1090F08BF2B46BE
:10080000B9F1050F08BF2B46B9F1000F08BF2B4601
:10081000AA4208BF1346DA6892041BD42A6812075A
:1008200018D5AA6852070BD46A6822F00C026A60D5
:10083000016821F4807101600168C90406D509E0EE
:10084000E06D40F01000E06504F16000016841F0E7
:10085000010101602046FFF78DFF25680C2028600C
:10086000B00602D51AF0200004D170062CD51AF07B
:10087000400029D0204650F85C2FD20603D40268ED
:1008800042F4005202602946EF6CEA68454508BF11
:100890004FF0A0410B46B9F1070F08BF2B46B9F145
:1008A000060F08BF2B46B9F1000F08BF2B46A9421F
:1008B00008BF0B46DB6817F4C07F6AD02046FFF7FD
:1008C00087FD25686020286030060CD51AF080006E
:1008D00009D0E06D40F48030E065204600F09EF9DC
:1008E000256880202860F0050DD51AF480700AD0A4
:1008F000E06D40F40030E0652046FFF76DFD2568AF
:100900004FF480702860B0050DD51AF400700AD03D
:10091000E06D40F48020E0652046FFF75FFD25682C
:100920004FF400702860F0061AD51AF0100017D0A6
:10093000E06B38B1B9F1000F4CD0D8F8080210F4D0
:10094000604F0BD0E06D40F48060E065206E40F0B9
:10095000020020662046FFF70FFF25681020286060
:10096000700558BFBDE8F0871AF480600FD0E06DC5
:100970004FF4806140F48040E065206E40F0080054
:10098000206620462960BDE8F047FFF723BDBDE89B
:10099000F087990106D502F4406103F400528918EA
:1009A0007FF48CAF296849067FF588AF13F40011F6
:1009B0007FF484AFA968090710D4696821F0600149
:1009C0006960016821F4805101600168C9053FF543
:1009D00075AF09E0E868C007B4D1BFE7E06D40F04B
:1009E0001000E06504F16000016841F00101016060
:1009F00064E70000B0B582B004460020002C0190EE
:100A000054D0E06D30B9204600F00AF9002020668D
:100A100084F8580021688868800006D588684FF6F9
:100A2000C072C5F6FF72104088608868C00030D47C
:100A30004FF6C0728868C5F6FF7202F1805210400E
:100A400000F18050886040F20400C2F200000068AB
:100A500042F663528009C0F23E52A0FB02029009A6
:100A6000022202EB400000BF0190019888B101987A
:100A700001380190019860B1019801380190019806
:100A800038B1019801380190019810B101980138EE
:100A9000EAE78868C0000CD4E06D40F01000E06523
:100AA000206E40F001002066012003E0012002B02A
:100AB000B0BD00208A68E36D02F0040203F0100369
:100AC000D218E26D71D122F481720232E2658A6835
:100AD000D2071AD140F2083C4FF600534FF600629D
:100AE000C5F2000CCFF6FF73CFF6FF725CF803304F
:100AF0005CF802201A43D20707D16268DCF80030A4
:100B000023F47C131A43CCF8002094F81DE0E36B27
:100B1000D4E902C243EA4E331A4394F8243042EA3D
:100B20000C02012B42EA034207D1D4F828C000236B
:100B3000CFF6FE7303EB4C431A43E36A33B1D4F8A8
:100B400030C003F4787343EA0C031A43D1F80CC0A5
:100B500044F20703CFF6F07303EA0C031A43CA60AA
:100B60000A69636B22F040621A430A618A681207BD
:100B700042D494F83820237F520042EA833CCB6869
:100B800044F2020223EA020242EA0C02CA6022692B
:100B90000B6972B143F480330B61D1F8C0C043F6E6
:100BA000FF732CEA03031A430BE042F0100101200B
:100BB00030E023F480320A61D1F8C02043F6FF739D
:100BC0009A43C1F8C02094F840300A69012B10D133
:100BD00040F2FD7322EA030CD4E91132D4E913E5A3
:100BE00043EA0C031A4342EA0E022A4342F001028E
:100BF00001E022F001020A6162690B6B012A23F015
:100C00000F0202D1236A013B1A430A63E16D0122FC
:100C100062F30101E16502B0B0BD00007047000061
:100C200010B598B004460020CDE9160002A80430A3
:100C30004021FFF757FB206840F20011C5F2000188
:100C4000884201D018B010BD4FF000504FF400445E
:100C5000119002A8029400F06BFA002818BFFFF769
:100C6000AFFB41F24C00C4F20200016841F40051B4
:100C70000160016801F4005101910199016841F09E
:100C800002010160006813A900F0020001900198C0
:100C9000032014900020159040F20040C4F600009C
:100CA000139400F01FF812200021002200F068F9D0
:100CB000122000F053F918B010BD0000B0B5044682
:100CC00000F0E4F8054640F20800C2F200000068B7
:100CD000611C18BF044400BF00F0D8F8401BA042BC
:100CE000FAD3B0BD2DE9F04F82B00D68002D00F0B1
:100CF000C48000F13847860546EA972741F200464E
:100D0000C4F60006062240F2004EB04208BF05229B
:100D1000C4F2010E052F38BF3A464FF0000C0124F3
:100D200000270026009209E00D68013635FA06F228
:100D300007F102070CF1040C00F09F8004FA06FB97
:100D400015EA0B08F0D0D1F804A003230AF003053C
:100D50006A1EBB40012A6FEA03090FD88268CB687C
:100D600002EA0902BB401A4382604268CAF30013D8
:100D700022EA0B02B3401A43426003E0032D01D183
:100D800003251FE0C2688B6802EA0902BB401A43D0
:100D9000022DC26016D16FF0030202EA560202442D
:100DA0000CF01C050F23D2F820A003FA05FB0B69F9
:100DB0002AEA0B0AAB4043EA0A031362D1F804A003
:100DC0000AF00305026805FA07F302EA09021A436A
:100DD0001AF4403F0260A7D041F26003C4F202035C
:100DE0001A684FF6084A42F001021A601A68CFF6F4
:100DF000FF7A02F001020192019A26F00302724486
:100E000052F80A900CF00C050F23009CAB4029EA25
:100E1000030304FA05F52B4342F80A30DEF80820F4
:100E20004B6842EA080540F20C49DC0258BF22EA4E
:100E30000805CEF80850C4F20109D9F800209D0237
:100E400042EA080458BF22EA0804C9F80040DEF864
:100E500004209D0342EA080458BF22EA0804CEF8A1
:100E60000440DEF80020DB0342EA080458BF22EA0F
:100E70000804CEF80040012456E702B0BDE8F08F28
:100E80001823002A08BF2823C150704740F22C10B5
:100E9000C2F200000068704740F2080040F22C11D6
:100EA000C2F20000C2F2000100680A681044086043
:100EB0007047000080B5032000F08EF80F2000F08E
:100EC00009F800281CBF012080BD00F02DF800208B
:100ED00080BD0000B0B540F20801C2F2000109680F
:100EE00001B3044640F20400C2F200004FF47A72EB
:100EF0000068B2FBF1F1B0FBF1F000F019FE0F2C2D
:100F00004FF001050CD858B94FF0FF3021460022B0
:100F1000002500F035F840F20C00C2F20000046039
:100F20002846B0BD0120B0BD82B041F25800C4F2E5
:100F30000200816841F001018160816801F00101D6
:100F400001910199016841F080510160006800F051
:100F500080500090009802B000F0E0B8002848BF30
:100F6000704700F01F01012202FA01F11C2202EA7F
:100F7000D0004EF20012CEF2000281507047000005
:100F800010B54EF60C5CCEF2000CDCF80030C3F36A
:100F9000022E8EF00704042C28BF0424BEF10303A4
:100FA0004FF0FF3E0EFA04F438BF0023A1439940EE
:100FB0000EFA03F39A43114300F00F0200F160436D
:100FC0000901043A03F564436244002848BF02F172
:100FD0000C03197010BD00004EF60C51CEF200014A
:100FE0000A684FF6FF031A4060F30A2242F080605D
:100FF00040F0FD7008607047B0F5007F42D00028D7
:1010000040F07F8047F21400C4F2000050F8141C36
:10101000C26E01F4C06122F48072B1F5806FC266C5
:101020002ED150F8141C012262F34A2140F8141CFE
:1010300040F20401C2F200010968322251434DF628
:101040008362C4F21B32A1FB0212910C02685205AA
:1010500011D54A1C0FD0026852050CD559B102684F
:10106000520508D5012906D00268520503D5022988
:10107000A1F10401EAD10068400544BF0320704794
:101080000020704747F21400C4F2000050F8141C0E
:10109000C26E01F4C06142F48072B1F5806FC26625
:1010A000EED150F8141C012262F34A2140F8141CBE
:1010B00040F20401C2F200010968322251434DF6A8
:1010C0008362C4F21B32A1FB0212910C026852052A
:1010D00011D54A1C0FD0026852050CD559B10268CF
:1010E000520508D5012906D00268520503D5022908
:1010F000A1F10401EAD10068400544BF0320704714
:10110000BEE747F21400C4F2000050F8141C02229B
:1011100062F34A2140F8141C0020704747F208008F
:10112000C4F20000016841F4804101607047000092
:101130002DE9F04182B00446807841F2880600072C
:10114000C4F2020601D400202FE056F8300C5FEA0A
:10115000C0080BD456F8300C40F0805046F8300CE4
:1011600056F8300C00F080500190019847F20007CB
:10117000C4F20007386840F480703860FFF786FEDC
:10118000054600BF3868C00500F1D480FFF77EFE39
:10119000401B0228F6D90320B8F1000F05D456F8F9
:1011A000301C21F0805146F8301C2168CA0712D14A
:1011B0008A0718D44A071ED40A0724D48A062AD4D8
:1011C0004A0630D40A0636D4CA053CD48A0542D42D
:1011D0004A0548D456E03268636822F003021A4395
:1011E00032608A07E6D53268A36822F00C021A43FF
:1011F00032604A07E0D53268E36822F030021A43D1
:1012000032600A07DAD53268236922F0C0021A4335
:1012100032608A06D4D53268636922F440621A4388
:1012200032604A06CED53268A36922F440521A438E
:1012300032600A06C8D53268E36922F440421A4394
:101240003260CA05C2D53268236A22F440321A439A
:1012500032608A05BCD53268636A22F440221A43A0
:1012600032604A050ED53268A36A22F440121A434E
:10127000B3F5801F326005D156F87C2C42F4801201
:1012800046F87C2C0A050ED53268E36A22F4400247
:101290001A43B3F5800F326005D156F87C2C42F426
:1012A000801246F87C2CCA040ED53268236B22F0DB
:1012B00040721A43B3F1807F326005D156F87C2C1E
:1012C00042F4801246F87C2C8A040ED53268636B97
:1012D00022F040621A43B3F1006F326005D156F834
:1012E0007C2C42F4801246F87C2C4A040ED53268DD
:1012F000A36B22F040621A43B3F1006F326005D154
:1013000056F87C2C42F4801246F87C2C09040ED549
:101310003168E26B21F040511143B2F1805F3160DE
:1013200005D156F87C1C41F4803146F87C1C02B093
:10133000BDE8F081B06810F4407010D0216C884294
:101340000BD0B068B16820F4407041F48031B160D6
:10135000B16821F48031B160B060C0070BD1B068D2
:10136000216C20F440700843B0600020B8F1000FF9
:101370003FF51BAF13E7FFF789FD054641F28837BC
:10138000B0688007EBD4FFF781FD401BB842F7D966
:1013900001E700002DE9F047002864D042F2000A7E
:1013A000C4F2020A0446DAF800000D4600F00F000D
:1013B00088420CD2DAF8000020F00F002843CAF867
:1013C0000000DAF8000000F00F00A8424BD12168BD
:1013D00041F20808C807C4F2020803D1880740F1A7
:1013E000D180B6E06068022839D003283ED158F891
:1013F000082C920137D5D8F80420D8F8043042F2EE
:101400000046C3F3031302F00302D8F8047001335B
:10141000C0F2F406032A04BF43F20066C0F26E165F
:10142000B6FBF3F2D8F80430C7F306277A43C3F3C8
:101430004163022707EB4303B2FBF3F24BF2004395
:10144000C0F2C4439A425AD9D8F8002012F0F00FE3
:101450004BD0890753D5A168002950D145E058F8F1
:10146000081C890306D40120BDE8F08758F8081C41
:101470004905F8D5D8F8001001F00C0104293ED038
:10148000D8F8001001F00C01082938D0D8F8001065
:1014900001F00C010C2932D1D8F80410D8F804203E
:1014A00042F20047C2F3031201F00301D8F80430FE
:1014B0000132C0F2F407032904BF43F20067C0F20F
:1014C0006E17B7FBF2F1D8F80420C3F30623594393
:1014D000C2F34162022303EB4202B1FBF2F14BF291
:1014E0000042C0F2C442914209D9D8F80010082243
:1014F00062F307114FF00109C8F8001001E04FF046
:101500000009D8F8001021F003010843C8F80000D2
:10151000FFF7BCFC064641F2883700BFD8F8000050
:10152000616800F00C00B0EB810F07D0FFF7AEFC54
:10153000801BB842F2D90320BDE8F08721688807F4
:1015400007D4B9F1000F1DD0D8F8000020F0F0004A
:1015500016E0480705D5D8F8000040F4E060C8F868
:101560000000080706D5D8F80000072262F30D2016
:10157000C8F80000D8F80000A26820F0F00010437E
:10158000C8F80000DAF8000000F00F00A8421AD9ED
:10159000DAF8000020F00F002843CAF80000FFF737
:1015A00075FC064641F28837DAF8000000F00F00BB
:1015B000A84207D0FFF76AFC801BB842F4D9032089
:1015C000BDE8F0872168480707D5D8F80000E26831
:1015D00020F4E0601043C8F80000080708D5D8F8E8
:1015E0000000216920F4605040EAC100C8F8000002
:1015F000D8F8000042F20041C0F2F40100F00C0003
:10160000042808462DD0D8F8000000F00C00082867
:1016100043F20060C0F26E1023D0D8F8002002F030
:101620000C020C2A1CD1D8F80420D8F8043002F09F
:101630000302C3F30313D8F804700133032A08BF6D
:101640000146B1FBF3F0D8F80410C7F30627C1F345
:1016500041610222784302EB4101B0FBF1F000E06E
:101660000020D8F8001044F6D822C1F30311C0F6C8
:101670000002515C40F2040201F01F0120FA01F166
:1016800040F20C00C2F200000068C2F200021160D9
:10169000BDE8F047FFF71EBC002804BF01207047DB
:1016A0002DE9F04182B00446007841F20006C007FF
:1016B000C4F202061DD1207880073BD420780007B1
:1016C0005ED4207840077CD42078800600F1CA8060
:1016D000E569002D00F02882B06800F00C000C28AD
:1016E00040F01A81012D40F07681012002B0BDE862
:1016F000F081B06800F00C01F068082958D003228E
:1017000081F00C0122EA00000844B0FA80F04009A0
:101710004ED16068B0F5803F07D0B0F5A02F40F003
:10172000D080306840F480203060306840F48030F1
:101730003060D1E0B068F16800F00C00042864D09B
:1017400001F0030180F00C0081F002010844B0FABE
:1017500080F0400959D1E1683068002900F0CA8062
:1017600040F480703060FFF791FB0546306840051B
:1017700000F1F480FFF78AFB401B0228F6D926E12E
:101780006169D6F89400002900F0898040F00100DA
:10179000C6F89400FFF77AFB054600BFD6F8940020
:1017A00080078ED4FFF772FB401B0228F6D90EE1AA
:1017B000306880037FF57FAF606800287FF47BAFDF
:1017C00039E0B06D5FEAC00808D4B06D40F08050D9
:1017D000B065B06D00F080500190019847F20007AD
:1017E000C4F200073868C00529D4386840F4807016
:1017F0003860FFF74BFB05463868C0051FD4FFF77C
:1018000045FB401B0228F7D9E1E03068400501D5CF
:10181000E06880B17068216920F0FE4040EA016014
:10182000706040F20C00C2F200000068FFF752FB4B
:1018300000283FF443AF012002B0BDE8F081A0686A
:10184000012808D0052840F0A680D6F8900040F086
:101850000400C6F89000D6F8900040F00100C6F8E9
:101860009000A6E0A169D6F89800002900F07E80DB
:1018700040F00100C6F89800FFF708FB054600BFDE
:10188000D6F8980080073FF523AFFFF7FFFA401B1B
:1018900002284FF00300F3D902B0BDE8F08120F038
:1018A0000100C6F89400FFF7F1FA0546D6F8940057
:1018B00080077FF506AFFFF7E9FA401B0228F5D94C
:1018C00085E03168002821F480313160316821F4ED
:1018D0008021316000F0B880FFF7D8FA054600BFDC
:1018E000306880033FF5E7AEFFF7D0FA401B64286D
:1018F000F6D96CE020F480703060FFF7C7FA054637
:10190000306840057FF5DAAEFFF7C0FA401B0228C9
:101910004FF00300F4D9BFE7306820F080703060EA
:10192000FFF7B4FA022D05460CD100BF30688001E4
:1019300040F1B580FFF7AAFA401B02284FF00300E0
:10194000F4D9A9E73068800140F1E780FFF79EFAFB
:10195000401B02284FF00300F4D99DE7706821690D
:1019600020F0FE4040EA01607060A7E620F0010030
:10197000C6F89800FFF78AFA054600BFD6F8980027
:1019800080077FF5A5AEFFF781FA401B02284FF0D4
:101990000300F3D980E7D6F89010002821F0010168
:1019A000C6F89010D6F8901021F00401C6F89010F7
:1019B0005AD0FFF76BFA054641F28837D6F8900007
:1019C000800763D4FFF762FA401BB842F6D90320C0
:1019D00002B0BDE8F081F068216A00F003028A429B
:1019E0007FF429AF626A6FF00F0300F0F00103EBA0
:1019F000021291427FF41FAFA16A00F4FE42B2EBE3
:101A0000012F7FF418AFE16A00F07842B2EBC16FAA
:101A10007FF411AF226B0023CFF6E07303EA02528A
:101A200000F4C001A2F5001291427FF404AF616B93
:101A30004FF07E4202EA016100F0C06001F17E4198
:101A400088427FF4F8AE6FE0FFF720FA054600BF4A
:101A5000306880037FF52FAEFFF718FA401B64282B
:101A60004FF00300F4D917E7FFF710FA054641F2EB
:101A7000883700BFD6F89000800707D5FFF706FA31
:101A8000401BB8424FF00300F4D905E7B8F1000F4E
:101A90003FF51AAEB06D20F08050B06514E6F068E6
:101AA00048F20C01C0F29F1104F1200700EA010C7A
:101AB0008ECF6FF00F00D4E90C5400EB021000221F
:101AC000CFF6E07241EA0C0102EA05520843A2F5A2
:101AD00000124FF07E4540EA032005EA04651043FA
:101AE00005F17E4540EAC7602843F060306840F069
:101AF00080703060F06840F08070F060FFF7C6F9E9
:101B0000044600BF306880010ED4FFF7BFF9001B08
:101B100002284FF00300F5D9BEE6F0684FF6FC71DD
:101B2000CFF6EE610840F060002002B0BDE8F08121
:101B3000411E0020B0EB116F1CBF012070474EF218
:101B40001002CEF2000251604EF62351CEF2000197
:101B5000F0230B7007219060116070477047000000
:101B60007047000070470000704700007047000099
:101B70007047000090F83C20012A4FF002024AD042
:101B800070B580F83D20026843F2004C54689368B9
:101B9000C4F2010C42F6004E6245C4F2010E01D0BF
:101BA000724503D14D6824F470042C434FF68F75B1
:101BB000CFF6FF550E682C4042F6FF35C4F2010502
:101BC0003443AA4254600FDCB2F1804F16D040F289
:101BD0000046C4F20006B24210D040F60006C4F23D
:101BE0000006B2420AD00EE0724507D044F2000669
:101BF000C4F20106B24201D0624504D1896823F0E3
:101C00008003194391600121002280F83D1080F883
:101C10003C20BDE87040104670470000704700004F
:101C2000002804BF0120704710B5044690F83D001D
:101C300028B9002084F83C00204600F023F8022058
:101C400084F83D002068211D02F016FE012084F872
:101C5000480084F83E0084F83F0084F8400084F88F
:101C6000410084F8420084F8430084F8440084F87A
:101C7000450084F8460084F8470084F83D000020C1
:101C800010BD0000006841F20001C4F2000188426A
:101C900018BF704780B582B041F25800C4F202000C
:101CA0000168002241F01001016000680F2100F07E
:101CB0001000019001983620FFF762F9362002B03B
:101CC000BDE88040FFF74AB970470000F0B581B029
:101CD00004460068C5680669B10716D515F002010B
:101CE00013D06FF002010161012121778069800723
:101CF00003D02046FFF7E8FF05E0204600F0CAF8D1
:101D0000204600F0C9F800202077700718D515F09C
:101D1000040015D020686FF00401016102212177D1
:101D2000806910F4407F03D02046FFF7CDFF05E027
:101D3000204600F0AFF8204600F0AEF800202077F3
:101D4000300717D515F0080014D020686FF008018F
:101D5000016104212177C069800703D02046FFF785
:101D6000B3FF05E0204600F095F8204600F094F817
:101D700000202077F00618D515F0100015D0206847
:101D80006FF01001016108212177C06910F4407FD4
:101D900003D02046FFF798FF05E0204600F07AF8D0
:101DA000204600F079F800202077F00718BF15F0E2
:101DB000010006D020686FF001010161204600F0AB
:101DC0006DF816F4025F05F0800718BF002F02D1EE
:101DD000F00509D410E020686FF40251016120463B
:101DE000FFF7BEFEF00507D537B120686FF48071AC
:101DF00001612046FFF7B2FE700609D515F04000DC
:101E000006D020686FF040010161204600F048F8DC
:101E1000B00609D515F0200006D020686FF020012B
:101E200001612046FFF79EFEF00209D515F48010EF
:101E300006D020686FF4801101612046FFF796FEFE
:101E4000B00209D515F4001006D020686FF4001117
:101E500001612046FFF788FE700209D515F4800065
:101E600006D020686FF4800101612046FFF780FEF4
:101E700030020CD515F4000009D021686FF400027F
:101E800020460A6101B0BDE8F040FFF7C7BE01B0CF
:101E9000F0BD000070470000704700007047000070
:101EA00070470000FEE70000B0B5044640F2184558
:101EB00000200021C4F6000500F0F8F9D5F8FC0375
:101EC000296980B241F400712961296941F4807166
:101ED0002961296841F0200129602221C5F8FC13FD
:101EE000296941F02001296100BF00BF00BF2968B6
:101EF00041F020012960296841F48071296000BF08
:101F000000BF00BF296841F400712960C5F8FC03D7
:101F10004FF49630D5F8FC132A6989B242F4007266
:101F20002A612A68043842F480722A602A6842F0E2
:101F300020022A60C5F8FC432A6942F020022A6187
:101F400000BF00BF00BF2A6842F020022A602A6852
:101F500042F480722A6000BF00BF00BF2A6842F4CA
:101F600000722A60C5F8FC13D5F8FC132A6989B2FF
:101F700042F400722A612A6842F480722A602A6858
:101F800042F020022A60C5F8FC432A6942F0200290
:101F90002A6100BF00BF00BF2A6842F020022A6009
:101FA0002A6842F480722A6000BF00BF00BF2A681E
:101FB00042F400722A60C5F8FC13D5F8FC132A69B4
:101FC00089B242F400722A612A6842F480722A605F
:101FD0002A6842F020022A60C5F8FC432A6942F0D0
:101FE00020022A6100BF00BF00BF2A6842F0200221
:101FF0002A602A6842F480722A6000BF00BF00BFD6
:102000002A6842F400722A60C5F8FC13D5F8FC1364
:102010002A6989B242F400722A612A6842F4807205
:102020002A602A6842F020022A60C5F8FC432A6927
:1020300042F020022A6100BF00BF00BF2A6842F0C0
:1020400020022A602A6842F480722A6000BF00BF22
:1020500000BF2A6842F400722A60C5F8FC137FF4BE
:1020600059AFB0BD2DE9F04F8BB0002641F24C00C6
:102070000596C4F20200016840F2184541F00401DF
:1020800001600168C4F6000501F00401069106999B
:10209000016801AC41F001010160016840F61409DA
:1020A00001F00101069106990168C4F6000941F0AA
:1020B000020101600068214600F0020006900698C7
:1020C0004FF44870019001200290A5F118000127FB
:1020D000CDE90366FEF706FE4FF48070CDE90107F7
:1020E0004FF090402146CDE90366FEF7FBFD4FF629
:1020F000FF7005F57A7406904FF0030806A9204694
:102100000A964FF6FF7B0797CDE90868FEF7EAFDD0
:102110004FF6004ACFF6FF7A55F80A0006A940F4B8
:10212000807045F80A0028684FF6FF7740F4087081
:102130002860286940F400702861286940F48070A4
:102140002861286840F020002860C9F800602869EC
:1021500040F02000286100BF00BF00BF286840F0A9
:1021600020002860286840F48070286020460A9685
:10217000CDF818B0CDF82480CDE90766FEF7B2FDA2
:102180004FF6104BCFF6FF7B55F80B0007A940F434
:10219000807045F80B0000BF00BF00BFD5F8F89372
:1021A00055F80A0040F4807045F80A00012081E8E3
:1021B000410106A920460A960697FEF793FD286876
:1021C00048F2302140F40070286040F27200C2F200
:1021D0000000A0F800900088884202D100F08AF93F
:1021E00001E000F08DFF2869002640F400702861AE
:1021F00028694FF6FF7840F48070286128684FF016
:10220000030940F02000286040F61400C4F60000E6
:102210000660286906A940F02000286100BF00BFC1
:1022200000BF286840F020002860286840F48070D3
:10223000286020460A96CDE90686CDE90869FEF7B2
:1022400051FD55F80B0007A940F4807045F80B00CC
:1022500000BF00BF00BFD5F8F87355F80A0040F47E
:10226000807045F80A00012081E8410206A9204655
:102270000A96CDF81880FEF735FD286840F4007006
:10228000286040F27200C2F2000007800BB0BDE887
:10229000F08F000081B0ADF80200BDF8020040F2FE
:1022A0000001C2F20001088001B0704740F21842FC
:1022B000C4F60002D2F8FCC3136943F4007313613F
:1022C000136943F480731361136843F020031360B0
:1022D0002023C2F8FC33136943F02003136100BFCD
:1022E00000BF00BF136843F020031360136843F47A
:1022F00080731360C2F8FC03106940F02000106185
:1023000000BF00BF00BF106840F0200010601068E0
:1023100040F4807010601FFA8CF0C2F8FC03D2F811
:10232000FC03136980B243F400731361136943F42F
:1023300080731361136843F0200313602123C2F8F4
:10234000FC33136943F02003136100BF00BF00BFDB
:10235000136843F020031360136843F48073136021
:10236000C2F8FC13116941F02001116100BF00BFE8
:1023700000BF116841F020011160116841F48071C3
:102380001160C2F8FC03704781B0ADF80200BDF8DF
:10239000020040F27001C2F20001088001B07047F3
:1023A000B0B588B040F2740040F20011C2F20000F3
:1023B000C5F2000100244FF40032042580E8160025
:1023C0000121CDE90644C0E90344C0E90545848301
:1023D000016280F82440C0E90B4480F83840C463AF
:1023E00080F84040FEF706FB002818BFFDF7E8FF25
:1023F00048F20000C3F6F06000900620CDE9010429
:102400007F20CDE9030540F27400C2F20000694666
:102410000594FDF7E5FF002818BFFDF7D1FF08B0D0
:10242000B0BD000070B586B0002541F24C00CDE98A
:102430000455C4F20200016801AC41F020010160C2
:102440000168012601F0200100910099016841F026
:1024500001010160016801F001010091009901682A
:1024600041F0020101600068214600F00200009086
:1024700000984FF09040CDE901650396FEF732FCDD
:10248000072001A961C140F20040C4F600002146C6
:10249000FEF728FC06B070BD10B584B040F2E00035
:1024A00041F200010024C2F20000C4F2000142F235
:1024B0000F7302944F2280E81600C3608461FFF717
:1024C000AFFB002818BFFDF77BFF40F2E000C2F22F
:1024D000000001A901940394FFF74CFB002818BFEA
:1024E000FDF76EFF04B010BDFEE70000FEE7000040
:1024F0007047000080B540F21840C4F60000D0F8E4
:10250000FC330169002241F40071016101694FF05F
:10251000010C41F48071016101684FF4407E41F08B
:1025200020010160C0F8FC23016941F02001016134
:1025300000BF00BF00BF016841F0200101600168D9
:1025400041F480710160C0F8FCC3016941F02001D1
:10255000016100BF00BF00BF016841F020010160C0
:10256000016841F48071016099B2C0F8FC13D0F8A1
:10257000FC33016941F400710161016941F480712A
:102580000161016841F020010160C0F8FCC30169EC
:1025900041F02001016100BF00BF00BF016841F0B0
:1025A00020010160016841F480710160C0F8FC23E2
:1025B000016941F02001016100BF00BF00BF016857
:1025C00041F020010160016841F48071016099B21D
:1025D000C0F8FC13D0F8FC23016941F400710161DB
:1025E000016941F480710161016841F020010160DD
:1025F0001021C0F8FC13016941F02001016100BF06
:1026000000BF00BF016841F020010160016841F492
:102610008071016041F29071C0F8FC13016941F0D2
:102620002001016100BF00BF00BF016841F020012F
:102630000160016841F48071016091B2C0F8FC133F
:10264000D0F8FC23016941F400710161016941F492
:1026500080710161016841F0200101606021C0F8D2
:10266000FC13016941F02001016100BF00BF00BF00
:10267000016841F020010160016841F4807101604E
:102680004FF41C51C0F8FC13016941F020010161B5
:1026900000BF00BF00BF016841F020010160016878
:1026A00041F48071016091B2C0F8FC13D0F8FC23B2
:1026B000016941F400710161016941F480710161B6
:1026C000016841F0200101606121C0F8FC1301693B
:1026D00041F02001016100BF00BF00BF016841F06F
:1026E00020010160016841F480710160C0F8FCC301
:1026F00001694FF0030C41F02001016100BF00BFF0
:1027000000BF016841F020010160016841F480715F
:10271000016091B2C0F8FC13D0F8FC23016992B2B9
:1027200041F400710161016941F480710161016846
:1027300041F0200101604621C0F8FC13016941F01D
:102740002001016100BF00BF00BF016841F020010E
:102750000160016841F4807101600221C0F8FC133E
:10276000036943F02003036100BF00BF00BF03689B
:1027700043F020030360036843F480730360C0F8F0
:10278000FC23D0F8FC23036992B243F40073036185
:10279000036943F480730361036843F0200303601B
:1027A0001323C0F8FC33036943F02003036100BF27
:1027B00000BF00BF036843F020030360036843F4D5
:1027C0008073036048F21003C0F8FC33036943F0E0
:1027D0002003036100BF00BF00BF036843F0200374
:1027E0000360036843F480730360C0F8FC23D0F8EF
:1027F000FC23036992B243F400730361036943F459
:1028000080730361036843F0200303601223C0F860
:10281000FC33036943F02003036100BF00BF00BF26
:10282000036843F020030360036843F4807303608C
:1028300048F2FE03C0F8FC33036943F02003036150
:1028400000BF00BF00BF036843F0200303600368BC
:1028500043F480730360C0F8FC23D0F8FC230369C1
:1028600043F400730361036943F4807303610368F5
:1028700043F020030360C0F8FC13016941F020011C
:10288000016100BF00BF00BF016841F0200101608D
:10289000016841F4807101604FF4A061C0F8FC133D
:1028A000016941F02001016100BF00BF00BF016864
:1028B00041F020010160016841F48071016091B232
:1028C000C0F8FC13D0F8FC23016941F400710161E8
:1028D000016941F480710161016841F020010160EA
:1028E000C0F8FCC3016941F02001016100BF00BFD5
:1028F00000BF016841F020010160016841F480716E
:10290000016041F23001C0F8FC13016941F020017F
:10291000016100BF00BF00BF016841F020010160FC
:10292000016841F48071016091B2C0F8FC13D0F8E5
:10293000FC33016940F2033241F400710161016925
:1029400041F480710161016841F020010160302192
:10295000C0F8FC13016941F02001016100BF00BF14
:1029600000BF016841F020010160016841F48071FD
:102970000160C0F8FC23016941F02001016100BF42
:1029800000BF00BF016841F020010160016841F40F
:102990008071016099B2C0F8FC13D0F8FC13036990
:1029A00089B243F400730361036943F480730361E4
:1029B000036843F0200303603123C0F8FC3303694C
:1029C00043F02003036100BF00BF00BF036843F072
:1029D00020030360036843F480730360C0F8FC23A2
:1029E000036943F02003036100BF00BF00BF036819
:1029F00043F020030360036843F480730360C0F86E
:102A0000FC13D0F8FC13036989B243F4007303612B
:102A1000036943F480730361036843F02003036098
:102A20003223C0F8FC33036943F02003036100BF85
:102A300000BF00BF036843F020030360036843F452
:102A400080730360C0F8FC23036943F02003036133
:102A500000BF00BF00BF036843F0200303600368AA
:102A600043F480730360C0F8FC13D0F8FC130369CF
:102A700089B243F400730361036943F48073036113
:102A8000036843F0200303603323C0F8FC33036979
:102A900043F02003036100BF00BF00BF036843F0A1
:102AA00020030360036843F480730360C0F8FCE311
:102AB000036943F02003036100BF00BF00BF036848
:102AC00043F020030360036843F480730360C0F89D
:102AD000FC13D0F8FC13036989B243F4007303615B
:102AE000036943F480730361036843F020030360C8
:102AF0003423C0F8FC33036943F02003036100BFB3
:102B000000BF00BF036843F020030360036843F481
:102B100080730360C0F8FCC3036943F020030361C2
:102B200000BF00BF00BF036843F0200303600368D9
:102B300043F480730360C0F8FC13D0F8FC130369FE
:102B400089B243F400730361036943F48073036142
:102B5000036843F0200303603523C0F8FC330369A6
:102B600043F02003036100BF00BF00BF036843F0D0
:102B700020030360036843F480730360C0F8FC2300
:102B8000036943F02003036100BF00BF00BF036877
:102B900043F020030360036843F480730360C0F8CC
:102BA000FC13D0F8FC13036989B243F4007303618A
:102BB000036943F480730361036843F020030360F7
:102BC0003623C0F8FC33036943F02003036100BFE0
:102BD00000BF00BF036843F020030360036843F4B1
:102BE000807303601423C0F8FC33036943F02003AF
:102BF000036100BF00BF00BF036843F02003036010
:102C0000036843F480730360C0F8FC13D0F8FC132E
:102C1000036989B243F400730361036943F4807369
:102C20000361036843F0200303603723C0F8FC33DB
:102C3000036943F02003036100BF00BF00BF0368C6
:102C400043F020030360036843F480730360C0F81B
:102C5000FC23036943F02003036100BF00BF00BFF2
:102C6000036843F020030360036843F48073036048
:102C7000C0F8FC13D0F8FC13036989B243F4007365
:102C80000361036943F480730361036843F0200325
:102C900003603823C0F8FC33036943F02003036169
:102CA00000BF00BF00BF036843F020030360036858
:102CB00043F480730360C0F8FC23036943F02003EE
:102CC000036100BF00BF00BF036843F0200303603F
:102CD000036843F480730360C0F8FC13D0F8FC135E
:102CE000036989B243F400730361036943F4807399
:102CF0000361036843F0200303603923C0F8FC3309
:102D0000036943F02003036100BF00BF00BF0368F5
:102D100043F020030360036843F480730360C0F84A
:102D2000FC23036943F02003036100BF00BF00BF21
:102D3000036843F020030360036843F48073036077
:102D4000C0F8FC13D0F8FC13036989B243F4007394
:102D50000361036943F480730361036843F0200354
:102D600003603A23C0F8FC33036943F02003036196
:102D700000BF00BF00BF036843F020030360036887
:102D800043F480730360C0F8FCE3036943F020035D
:102D9000036100BF00BF00BF036843F0200303606E
:102DA000036843F480730360C0F8FC13D0F8FC138D
:102DB000036989B243F400730361036943F48073C8
:102DC0000361036843F0200303603B23C0F8FC3336
:102DD000036943F02003036100BF00BF00BF036825
:102DE00043F020030360036843F480730360C0F87A
:102DF000FCC3036943F02003036100BF00BF00BFB1
:102E0000036843F020030360036843F480730360A6
:102E1000C0F8FC13D0F8FC13036989B243F40073C3
:102E20000361036943F480730361036843F0200383
:102E300003603C23C0F8FC33036943F020030361C3
:102E400000BF00BF00BF036843F0200303600368B6
:102E500043F480730360C0F8FC23036943F020034C
:102E6000036100BF00BF00BF036843F0200303609D
:102E7000036843F480730360C0F8FC13D0F8FC13BC
:102E8000036989B243F400730361036943F48073F7
:102E90000361036843F0200303603D23C0F8FC3363
:102EA000036943F02003036100BF00BF00BF036854
:102EB00043F020030360036843F4807303604FF41E
:102EC000A053C0F8FC33036943F02003036100BF43
:102ED00000BF00BF036843F020030360036843F4AE
:102EE00080730360C0F8FC13D0F8FC13036989B247
:102EF00043F400730361036943F48073036103685F
:102F000043F0200303609223C0F8FC33036943F0CD
:102F10002003036100BF00BF00BF036843F020032C
:102F20000360036843F4807303604FF40073C0F8D8
:102F3000FC33036943F02003036100BF00BF00BFFF
:102F4000036843F020030360036843F48073036065
:102F5000C0F8FC13D0F8FC13036989B243F4007382
:102F60000361036943F480730361036843F0200342
:102F700003609323C0F8FC33036943F0200303612B
:102F800000BF00BF00BF036843F020030360036875
:102F900043F480730360C0F8FC23026942F020020E
:102FA000026100BF00BF00BF026842F02002026061
:102FB000026842F480720260C0F8FC13D0F8FC137F
:102FC000026989B242F400720261026942F48072BD
:102FD0000261026842F0200202609022C0F8FC23E5
:102FE000026942F02002026100BF00BF00BF026818
:102FF00042F020020260026842F48072026040F6F1
:103000000D02C0F8FC23026942F02002026100BFF9
:1030100000BF00BF026842F020020260026842F472
:1030200080720260C0F8FC13D0F8FC13026989B208
:1030300042F400720261026942F480720261026825
:1030400042F020020260C0F8FCC3026942F0200294
:10305000026100BF00BF00BF026842F020020260B0
:10306000026842F48072026041F21802C0F8FC2348
:10307000026942F02002026100BF00BF00BF026887
:1030800042F020020260026842F480720260C0F8DE
:10309000FC13D0F8FC13026989B242F40072026199
:1030A000026942F480720261026842F0200202600A
:1030B0000722C0F8FC23026942F02002026100BF2F
:1030C00000BF00BF026842F020020260026842F4C2
:1030D0008072026040F27312C0F8FC23026942F071
:1030E0002002026100BF00BF00BF026842F0200260
:1030F0000260026842F480720260C0F8FC1380BD76
:103100002DE9F04F81B040F21844C4F60004D4F821
:10311000FC03216980B241F40071216121694FF003
:10312000120941F4807121612168002541F02001DC
:103130002160E321C4F8FC132169112641F020012C
:10314000216100BF00BF00BF21684FF0130B41F0A9
:10315000200121602168102741F48071216043F231
:103160000801C4F8FC1321694FF0070841F0200161
:10317000216100BF00BF00BF216841F02001216034
:10318000216841F480712160C4F8FC03D4F8FC0389
:10319000216980B241F400712161216941F480719B
:1031A0002161216841F020012160E721C4F8FC136E
:1031B000216941F02001216100BF00BF00BF2168EB
:1031C00041F020012160216841F480712160C4F840
:1031D000FC93216941F02001216100BF00BF00BFC5
:1031E000216841F020012160216841F48071216053
:1031F000C4F8FC03D4F8FC03216980B241F40071E7
:103200002161216941F480712161216841F020012F
:103210002160EF21C4F8FC13216941F020012161F4
:1032200000BF00BF00BF216841F02001216021687C
:1032300041F48071216041F23121C4F8FC1321690D
:1032400041F02001216100BF00BF00BF216841F0B3
:1032500020012160216841F480712160C4F8FC03E1
:10326000D4F8FC03216980B241F400712161216925
:1032700041F480712161216841F020012160012128
:10328000C4F8FC13216941F02001216100BF00BF97
:1032900000BF216841F020012160216841F4807164
:1032A0002160C4F8FC53216941F02001216100BF75
:1032B00000BF00BF216841F020012160216841F476
:1032C00080712160C4F8FC03D4F8FC03216980B24A
:1032D00041F400712161216941F48071216121680B
:1032E00041F0200121600221C4F8FC13216941F062
:1032F0002001216100BF00BF00BF216841F0200113
:103300002160216841F4807121604FF4E061C4F8CC
:10331000FC13216941F02001216100BF00BF00BF03
:10332000216841F020012160216841F48071216011
:10333000C4F8FC03D4F8FC03216980B241F40071A5
:103340002161216941F480712161216841F02001EE
:1033500021600321C4F8FC13216941F0200121619F
:1033600000BF00BF00BF216841F02001216021683B
:1033700041F48071216041F23001C4F8FC132169ED
:1033800041F02001216100BF00BF00BF216841F072
:1033900020012160216841F480712160C4F8FC03A0
:1033A000D4F8FC03216980B241F4007121612169E4
:1033B00041F480712161216841F0200121600421E4
:1033C000C4F8FC13216941F02001216100BF00BF56
:1033D00000BF216841F020012160216841F4807123
:1033E0002160C4F8FC53216941F02001216100BF34
:1033F00000BF00BF216841F020012160216841F435
:1034000080712160C4F8FC03D4F8FC03216980B208
:1034100041F400712161216941F4807121612168C9
:1034200041F0200121600821C4F8FC13216941F01A
:103430002001216100BF00BF00BF216841F02001D1
:103440002160216841F48071216040F20721C4F8B5
:10345000FC13216941F02001216100BF00BF00BFC2
:10346000216841F020012160216841F480712160D0
:10347000C4F8FC03D4F8FC03216980B241F4007164
:103480002161216941F480712161216841F02001AD
:1034900021600921C4F8FC13216941F02001216158
:1034A00000BF00BF00BF216841F0200121602168FA
:1034B00041F480712160C4F8FC53216941F020017E
:1034C000216100BF00BF00BF216841F020012160E1
:1034D000216841F480712160C4F8FC03D4F8FC0336
:1034E000216980B241F400712161216941F4807148
:1034F0002161216841F0200121600A21C4F8FC13F8
:10350000216941F02001216100BF00BF00BF216897
:1035100041F020012160216841F480712160C4F8EC
:10352000FC53216941F02001216100BF00BF00BFB1
:10353000216841F020012160216841F480712160FF
:10354000C4F8FC03D4F8FC03216980B241F4007193
:103550002161216941F480712161216841F02001DC
:1035600021600C21C4F8FC13216941F02001216184
:1035700000BF00BF00BF216841F020012160216829
:1035800041F480712160C4F8FC53216941F02001AD
:10359000216100BF00BF00BF216841F02001216010
:1035A000216841F480712160C4F8FC03D4F8FC0365
:1035B000216980B241F400712161216941F4807177
:1035C0002161216841F0200121600D21C4F8FC1324
:1035D000216941F02001216100BF00BF00BF2168C7
:1035E00041F020012160216841F480712160C4F81C
:1035F000FC53216941F02001216100BF00BF00BFE1
:10360000216841F020012160216841F4807121602E
:10361000C4F8FC03D4F8FC03216980B241F40071C2
:103620002161216941F480712161216841F020010B
:1036300021600F21C4F8FC13216941F020012161B0
:1036400000BF00BF00BF216841F020012160216858
:1036500041F480712160C4F8FC53216941F02001DC
:10366000216100BF00BF00BF216841F0200121603F
:10367000216841F480712160C4F8FC03D4F8FC0394
:10368000216980B241F400712161216941F48071A6
:103690002161216841F0200121601021C4F8FC1350
:1036A000216941F02001216100BF00BF00BF2168F6
:1036B00041F020012160216841F480712160C4F84B
:1036C000FC53216941F02001216100BF00BF00BF10
:1036D000216841F020012160216841F4807121605E
:1036E000C4F8FC03D4F8FC03216980B241F40071F2
:1036F0002161216941F480712161216841F020013B
:103700002160C4F8FC63216941F02001216100BF00
:1037100000BF00BF216841F020012160216841F411
:10372000807121600721C4F8FC13216941F0200158
:10373000216100BF00BF00BF216841F0200121606E
:10374000216841F480712160C4F8FC03D4F8FC03C3
:10375000216980B241F400712161216941F48071D5
:103760002161216841F020012160C4F8FC932169A6
:1037700041F02001216100BF00BF00BF216841F07E
:1037800020012160216841F480712160C4F8FC535C
:10379000216941F02001216100BF00BF00BF216805
:1037A00041F020012160216841F480712160C4F85A
:1037B000FC03D4F8FC03216980B241F4007121615B
:1037C000216941F480712161216841F0200121606B
:1037D000C4F8FCB3216941F02001216100BF00BFA2
:1037E00000BF216841F020012160216841F480710F
:1037F0002160C4F8FC53216941F02001216100BF20
:1038000000BF00BF216841F020012160216841F420
:1038100080712160C4F8FC03C820FDF74FFAD4F88A
:10382000FC03216980B241F40071216121694FF0EC
:10383000320A41F480712161216841F02001216048
:10384000C4F8FC732169102741F02001216100BFF9
:1038500000BF00BF216841F020012160216841F4D0
:103860008071216041F29061C4F8FC13216941F03C
:103870002001216100BF00BF00BF216841F020018D
:103880002160216841F480712160C4F8FC03D4F800
:10389000FC03216980B241F400712161216941F486
:1038A00080712161216841F020012160C4F8FC632E
:1038B000216941F02001216100BF00BF00BF2168E4
:1038C00041F020012160216841F48071216040F2C3
:1038D0002721C4F8FC13216941F02001216100BFB8
:1038E00000BF00BF216841F020012160216841F440
:1038F00080712160C4F8FC033220FDF7DFF9D4F8B1
:10390000FC03216980B241F400712161216941F415
:1039100080712161216841F020012160C4F8FC938D
:10392000216941F02001216100BF00BF00BF216873
:1039300041F020012160216841F4807121601D2146
:10394000C4F8FC13216941F02001216100BF00BFD0
:1039500000BF216841F020012160216841F480719D
:103960002160C4F8FC033220FDF7A8F9D4F8FC0369
:10397000216980B241F400712161216941F48071B3
:103980002161216841F020012160C4F8FCB3216964
:1039900041F02001216100BF00BF00BF216841F05C
:1039A00020012160216841F4807121604FF40061A1
:1039B000C4F8FC13216941F02001216100BF00BF60
:1039C00000BF216841F020012160216841F480712D
:1039D0002160C4F8FC03D4F8FC03216980B241F4EF
:1039E00000712161216941F480712161216841F0F8
:1039F000200121602921C4F8FC13216941F0200134
:103A0000216100BF00BF00BF216841F0200121609B
:103A1000216841F4807121601421C4F8FC132169EC
:103A200041F02001216100BF00BF00BF216841F0CB
:103A300020012160216841F480712160C4F8FC03F9
:103A4000D4F8FC03216980B241F40071216121693D
:103A500041F480712161216841F0200121602B2116
:103A6000C4F8FC13216941F02001216100BF00BFAF
:103A700000BF216841F020012160216841F480717C
:103A800021600B21C4F8FC13216941F02001216160
:103A900000BF00BF00BF216841F020012160216804
:103AA00041F480712160C4F8FC033220FDF706F96F
:103AB000D4F8FC03216980B241F4007121612169CD
:103AC000032241F4807121612168072341F0200124
:103AD00021602021C4F8FC13216941F020012161FB
:103AE00000BF00BF00BF216841F0200121602168B4
:103AF00041F480712160C4F8FC53216941F0200138
:103B0000216100BF00BF00BF216841F0200121609A
:103B1000216841F480712160C4F8FC03D4F8FC03EF
:103B2000216980B241F400712161216941F4807101
:103B30002161216841F0200121602121C4F8FC139A
:103B4000216941F02001216100BF00BF00BF216851
:103B500041F020012160216841F480712160C4F8A6
:103B6000FC53216941F02001216100BF00BF00BF6B
:103B7000216841F020012160216841F480712160B9
:103B8000C4F8FC03D4F8FC03216980B241F400714D
:103B90002161216941F480712161216841F0200196
:103BA00021603021C4F8FC13216941F0200121611A
:103BB00000BF00BF00BF216841F0200121602168E3
:103BC00041F480712160C4F8FC83216941F0200137
:103BD000216100BF00BF00BF216841F020012160CA
:103BE000216841F480712160C4F8FC03D4F8FC031F
:103BF000216980B241F400712161216941F4807131
:103C00002161216841F0200121603121C4F8FC13B9
:103C1000216941F02001216100BF00BF00BF216880
:103C200041F020012160216841F48071216040F25F
:103C30000771C4F8FC13216941F02001216100BF24
:103C400000BF00BF216841F020012160216841F4DC
:103C500080712160C4F8FC03D4F8FC03216980B2B0
:103C600041F400712161216941F480712161216871
:103C700041F020012160C4F8FCA3216941F020013A
:103C8000216100BF00BF00BF216841F02001216019
:103C9000216841F4807121600621C4F8FC13216978
:103CA00041F02001216100BF00BF00BF216841F049
:103CB00020012160216841F480712160C4F8FC0377
:103CC000D4F8FC03216980B241F4007121612169BB
:103CD00041F480712161216841F02001216035218A
:103CE000C4F8FC13216941F02001216100BF00BF2D
:103CF00000BF216841F020012160216841F48071FA
:103D0000216040F20471C4F8FC13216941F02001E4
:103D1000216100BF00BF00BF216841F02001216088
:103D2000216841F480712160C4F8FC03D4F8FC03DD
:103D3000216980B241F400712161216941F48071EF
:103D40002161216841F0200121603621C4F8FC1373
:103D5000216941F02001216100BF00BF00BF21683F
:103D600041F020012160216841F48071216041F619
:103D70000471C4F8FC13216941F02001216100BFE6
:103D800000BF00BF216841F020012160216841F49B
:103D900080712160C4F8FC03D4F8FC03216980B26F
:103DA00041F400712161216941F480712161216830
:103DB00041F0200121603721C4F8FC13216941F052
:103DC0002001216100BF00BF00BF216841F0200138
:103DD0002160216841F4807121600421C4F8FC1342
:103DE000216941F02001216100BF00BF00BF2168AF
:103DF00041F020012160216841F480712160C4F804
:103E0000FC03D4F8FC03216980B241F40071216104
:103E1000216941F480712161216841F02001216014
:103E20003821C4F8FC13216941F02001216100BF51
:103E300000BF00BF216841F020012160216841F4EA
:103E400080712160C4F8FC53216941F02001216197
:103E500000BF00BF00BF216841F020012160216840
:103E600041F480712160C4F8FC03D4F8FC0321699B
:103E700080B241F400712161216941F480712161B6
:103E8000216841F0200121603921C4F8FC13216927
:103E900041F02001216100BF00BF00BF216841F057
:103EA00020012160216841F48071216040F2067197
:103EB000C4F8FC13216941F02001216100BF00BF5B
:103EC00000BF216841F020012160216841F4807128
:103ED0002160C4F8FC03D4F8FC03216980B241F4EA
:103EE00000712161216941F480712161216841F0F3
:103EF000200121603C21C4F8FC13216941F020011C
:103F0000216100BF00BF00BF216841F02001216096
:103F1000216841F48071216040F20171C4F8FC1302
:103F2000216941F02001216100BF00BF00BF21686D
:103F300041F020012160216841F480712160C4F8C2
:103F4000FC03D4F8FC03216980B241F400712161C3
:103F5000216941F480712161216841F020012160D3
:103F60003D21C4F8FC13216941F02001216100BF0B
:103F700000BF00BF216841F020012160216841F4A9
:103F8000807121600F21C4F8FC13216941F02001E8
:103F9000216100BF00BF00BF216841F02001216006
:103FA000216841F480712160C4F8FC03D4F8FC035B
:103FB000216980B241F400712161216941F480716D
:103FC0002161216841F0200121605021C4F8FC13D7
:103FD000216941F02001216100BF00BF00BF2168BD
:103FE00041F020012160216841F480712160C4F812
:103FF000FC53216941F02001216100BF00BF00BFD7
:10400000216841F020012160216841F48071216024
:10401000C4F8FC03D4F8FC03216980B241F40071B8
:104020002161216941F480712161216841F0200101
:1040300021605121C4F8FC13216941F02001216164
:1040400000BF00BF00BF216841F02001216021684E
:1040500041F480712160EF21C4F8FC13216941F023
:104060002001216100BF00BF00BF216841F0200195
:104070002160216841F480712160C4F8FC03D4F808
:10408000FC03216980B241F400712161216941F48E
:1040900080712161216841F0200121605221C4F822
:1040A000FC13216941F02001216100BF00BF00BF66
:1040B000216841F020012160216841F48071216074
:1040C000C4F8FC53216941F02001216100BF00BF09
:1040D00000BF216841F020012160216841F4807116
:1040E0002160C4F8FC03D4F8FC03216980B241F4D8
:1040F00000712161216941F480712161216841F0E1
:10410000200121605321C4F8FC13216941F02001F2
:10411000216100BF00BF00BF216841F02001216084
:10412000216841F48071216040F23F11C4F8FC1312
:10413000216941F02001216100BF00BF00BF21685B
:1041400041F020012160216841F480712160C4F8B0
:10415000FC03D4F8FC03216980B241F400712161B1
:10416000216941F480712161216841F020012160C1
:104170006021C4F8FC13216941F02001216100BFD6
:1041800000BF00BF216841F020012160216841F497
:10419000807121604FF41C51C4F8FC13216941F077
:1041A0002001216100BF00BF00BF216841F0200154
:1041B0002160216841F480712160C4F8FC03D4F8C7
:1041C000FC03216980B241F400712161216941F44D
:1041D00080712161216841F0200121606121C4F8D2
:1041E000FC13216941F02001216100BF00BF00BF25
:1041F000216841F020012160216841F48071216033
:104200000121C4F8FC13216941F02001216100BFA4
:1042100000BF00BF216841F020012160216841F406
:1042200080712160C4F8FC03D4F8FC03216980B2DA
:1042300041F400712161216941F48071216121689B
:1042400041F0200121606A21C4F8FC13216941F08A
:104250002001216100BF00BF00BF216841F02001A3
:104260002160216841F480712160C4F8FC53216908
:1042700041F02001216100BF00BF00BF216841F073
:1042800020012160216841F480712160C4F8FC03A1
:10429000D4F8FC03216980B241F4007121612169E5
:1042A00041F480712161216841F020012160802169
:1042B000C4F8FC13216941F02001216100BF00BF57
:1042C00000BF216841F020012160216841F4807124
:1042D0002160C4F8FC53216941F02001216100BF35
:1042E00000BF00BF216841F020012160216841F436
:1042F00080712160C4F8FC03D4F8FC03216980B20A
:1043000041F400712161216941F4807121612168CA
:1043100041F0200121608121C4F8FC13216941F0A2
:104320002001216100BF00BF00BF216841F02001D2
:104330002160216841F480712160C4F8FC53216937
:1043400041F02001216100BF00BF00BF216841F0A2
:1043500020012160216841F480712160C4F8FC03D0
:10436000D4F8FC03216980B241F400712161216914
:1043700041F480712161216841F020012160822196
:10438000C4F8FC13216941F02001216100BF00BF86
:1043900000BF216841F020012160216841F4807153
:1043A0002160C4F8FC53216941F02001216100BF64
:1043B00000BF00BF216841F020012160216841F465
:1043C00080712160C4F8FC03D4F8FC03216980B239
:1043D00041F400712161216941F4807121612168FA
:1043E00041F0200121608321C4F8FC13216941F0D0
:1043F0002001216100BF00BF00BF216841F0200102
:104400002160216841F480712160C4F8FC53216966
:1044100041F02001216100BF00BF00BF216841F0D1
:1044200020012160216841F480712160C4F8FC03FF
:10443000D4F8FC03216980B241F400712161216943
:1044400041F480712161216841F0200121608421C3
:10445000C4F8FC13216941F02001216100BF00BFB5
:1044600000BF216841F020012160216841F4807182
:104470002160C4F8FC53216941F02001216100BF93
:1044800000BF00BF216841F020012160216841F494
:1044900080712160C4F8FC03D4F8FC03216980B268
:1044A00041F400712161216941F480712161216829
:1044B00041F0200121608521C4F8FC13216941F0FD
:1044C0002001216100BF00BF00BF216841F0200131
:1044D0002160216841F480712160C4F8FC53216996
:1044E00041F02001216100BF00BF00BF216841F001
:1044F00020012160216841F480712160C4F8FC032F
:10450000D4F8FC03216980B241F400712161216972
:1045100041F480712161216841F0200121609021E6
:10452000C4F8FC13216941F02001216100BF00BFE4
:1045300000BF216841F020012160216841F48071B1
:104540002160C4F8FC73216941F02001216100BFA2
:1045500000BF00BF216841F020012160216841F4C3
:1045600080712160C4F8FC03D4F8FC03216980B297
:1045700041F400712161216941F480712161216858
:1045800041F0200121609221C4F8FC13216941F01F
:104590002001216100BF00BF00BF216841F0200160
:1045A0002160216841F480712160C4F8FC532169C5
:1045B00041F02001216100BF00BF00BF216841F030
:1045C00020012160216841F480712160C4F8FC035E
:1045D000D4F8FC03216980B241F4007121612169A2
:1045E00041F480712161216841F020012160932113
:1045F000C4F8FC13216941F02001216100BF00BF14
:1046000000BF216841F020012160216841F48071E0
:104610002160C4F8FC23216941F02001216100BF21
:1046200000BF00BF216841F020012160216841F4F2
:1046300080712160C4F8FC03D4F8FC03216980B2C6
:1046400041F400712161216941F480712161216887
:1046500041F0200121609521C4F8FC13216941F04B
:104660002001216100BF00BF00BF216841F020018F
:104670002160216841F4807121604FF48871C4F891
:10468000FC13216941F02001216100BF00BF00BF80
:10469000216841F020012160216841F4807121608E
:1046A000C4F8FC03D4F8FC03216980B241F4007122
:1046B0002161216941F480712161216841F020016B
:1046C00021609721C4F8FC13216941F02001216188
:1046D00000BF00BF00BF216841F0200121602168B8
:1046E00041F480712160C4F8FC53216941F020013C
:1046F000216100BF00BF00BF216841F0200121609F
:10470000216841F480712160C4F8FC03D4F8FC03F3
:10471000216980B241F400712161216941F4807105
:104720002161216841F0200121609821C4F8FC1327
:10473000216941F02001216100BF00BF00BF216855
:1047400041F020012160216841F480712160C4F8AA
:10475000FC53216941F02001216100BF00BF00BF6F
:10476000216841F020012160216841F480712160BD
:10477000C4F8FC03D4F8FC03216980B241F4007151
:104780002161216941F480712161216841F020019A
:104790002160C4F8FC23216941F02001216100BFA0
:1047A00000BF00BF216841F020012160216841F471
:1047B0008071216041F21801C4F8FC13216941F0B5
:1047C0002001216100BF00BF00BF216841F020012E
:1047D0002160216841F480712160C4F8FC03D4F8A1
:1047E000FC03216980B241F400712161216941F427
:1047F00080712161216841F020012160C4F8FC33FF
:10480000216941F02001216100BF00BF00BF216884
:1048100041F020012160216841F48071216040F263
:104820007311C4F8FC13216941F02001216100BF1C
:1048300000BF00BF216841F020012160216841F4E0
:1048400080712160C4F8FC0301B0BDE8F08F000066
:1048500070470000FCF720BB4EF68850CEF20000F7
:10486000016841F4700101607047000040F2E0000F
:10487000C2F20000FDF72ABA40F2FF7C0268C4F2DF
:10488000000C604512DD40F60003C4F200039842BC
:1048900015D043F20043C4F2010398420FD042F610
:1048A0000043C4F20103984209D00CE0B0F1804FFC
:1048B00005D040F20043C4F20003984203D14B6894
:1048C00022F070021A4343F2FF33C4F2010398420C
:1048D00009DC604516DCB0F1804F28D040F200437F
:1048E000C4F2000321E044F2FF33C4F20103984212
:1048F00011DC43F20043C4F20103984217D044F2A2
:10490000000310E040F60003C4F2000398420ED00A
:1049100042F6004307E044F60003C4F20103984264
:1049200005D044F20043C4F20103984203D1CB689E
:1049300022F440721A4380B54B6922F0800E8A68D7
:1049400043EA0E03D1F800C00360C262A0F18042C6
:10495000A2F59632830543EA9222072AC0F828C0BE
:10496000BDE8804007D8012303FA02F212F0E50FF8
:104970001CBF09690163012141610169C90708BFC1
:104980007047016921F0010101617047FEE70000F5
:104990002DE9F04385B041F24C00C4F202000168F9
:1049A00040F6004441F0040101600168C4F60004CF
:1049B00001F00401009100990168A4F5806541F0BF
:1049C0000801016000686E4600F008000090009841
:1049D0004FF47F404FF001084FF00009009002278C
:1049E00028463146CDF80480CDF808900397FCF7AF
:1049F00079F928464FF47F410122FCF741FA04205F
:104A00008DE80103204631460397FCF76BF92046F9
:104A100004210122FCF734FA204604210022FCF78D
:104A20002FFA05B0BDE8F08394B0FCF743FA0024F8
:104A30004FF400700C94CDE90A44CDE90844FCF72A
:104A4000DBFA012006904FF48030079002201421F9
:104A50000D900325CDE91010CDE9120006A8CDE98F
:104A60000E55FCF719FE20B1EFF3108072B600BFAF
:104A7000FEE70F20CDE9010501A80221CDE903449D
:104A80000594FCF787FC20B1EFF3108072B600BFED
:104A9000FEE7FDF7C7FCFDF783FCFDF7FDFCFFF724
:104AA00077FFFDF7DFFA0020FDF7FEF90020FDF7A4
:104AB000F1FB4FF6FF70FDF767FC00BFFEE7F1EE7C
:104AC000100A4FF6FF71C0F2C03120EA010040F039
:104AD0004070E1EE100A7047000000000000000086
:104AE0000102030406070809084B00080000002023
:104AF000100000003C020008184B000810000020C5
:104B0000200700005C020008FFFF00000024F40002
:084B100001000000100000008C
:04000005080001D915
:00000001FF
